{
    "contractName": "SloppyTopUppy",
    "abi": [
        {
            "inputs": [
                {
                    "internalType": "string",
                    "name": "",
                    "type": "string"
                }
            ],
            "name": "OrderNotValid",
            "type": "error"
        },
        {
            "inputs": [
                {
                    "internalType": "string",
                    "name": "reason",
                    "type": "string"
                }
            ],
            "name": "PollNever",
            "type": "error"
        },
        {
            "inputs": [
                {
                    "internalType": "uint256",
                    "name": "blockNumber",
                    "type": "uint256"
                },
                {
                    "internalType": "string",
                    "name": "reason",
                    "type": "string"
                }
            ],
            "name": "PollTryAtBlock",
            "type": "error"
        },
        {
            "inputs": [
                {
                    "internalType": "uint256",
                    "name": "timestamp",
                    "type": "uint256"
                },
                {
                    "internalType": "string",
                    "name": "reason",
                    "type": "string"
                }
            ],
            "name": "PollTryAtEpoch",
            "type": "error"
        },
        {
            "inputs": [
                {
                    "internalType": "string",
                    "name": "reason",
                    "type": "string"
                }
            ],
            "name": "PollTryNextBlock",
            "type": "error"
        },
        {
            "inputs": [
                {
                    "internalType": "uint8",
                    "name": "bits",
                    "type": "uint8"
                },
                {
                    "internalType": "uint256",
                    "name": "value",
                    "type": "uint256"
                }
            ],
            "name": "SafeCastOverflowedUintDowncast",
            "type": "error"
        },
        {
            "anonymous": false,
            "inputs": [
                {
                    "indexed": true,
                    "internalType": "address",
                    "name": "owner",
                    "type": "address"
                },
                {
                    "components": [
                        {
                            "internalType": "contract IConditionalOrder",
                            "name": "handler",
                            "type": "address"
                        },
                        {
                            "internalType": "bytes32",
                            "name": "salt",
                            "type": "bytes32"
                        },
                        {
                            "internalType": "bytes",
                            "name": "staticInput",
                            "type": "bytes"
                        }
                    ],
                    "indexed": false,
                    "internalType": "struct IConditionalOrder.ConditionalOrderParams",
                    "name": "params",
                    "type": "tuple"
                }
            ],
            "name": "ConditionalOrderCreated",
            "type": "event"
        },
        {
            "inputs": [
                {
                    "internalType": "address",
                    "name": "owner",
                    "type": "address"
                },
                {
                    "internalType": "address",
                    "name": "",
                    "type": "address"
                },
                {
                    "internalType": "bytes32",
                    "name": "",
                    "type": "bytes32"
                },
                {
                    "internalType": "bytes",
                    "name": "staticInput",
                    "type": "bytes"
                },
                {
                    "internalType": "bytes",
                    "name": "offchainInput",
                    "type": "bytes"
                }
            ],
            "name": "getTradeableOrder",
            "outputs": [
                {
                    "components": [
                        {
                            "internalType": "contract IERC20",
                            "name": "sellToken",
                            "type": "address"
                        },
                        {
                            "internalType": "contract IERC20",
                            "name": "buyToken",
                            "type": "address"
                        },
                        {
                            "internalType": "address",
                            "name": "receiver",
                            "type": "address"
                        },
                        {
                            "internalType": "uint256",
                            "name": "sellAmount",
                            "type": "uint256"
                        },
                        {
                            "internalType": "uint256",
                            "name": "buyAmount",
                            "type": "uint256"
                        },
                        {
                            "internalType": "uint32",
                            "name": "validTo",
                            "type": "uint32"
                        },
                        {
                            "internalType": "bytes32",
                            "name": "appData",
                            "type": "bytes32"
                        },
                        {
                            "internalType": "uint256",
                            "name": "feeAmount",
                            "type": "uint256"
                        },
                        {
                            "internalType": "bytes32",
                            "name": "kind",
                            "type": "bytes32"
                        },
                        {
                            "internalType": "bool",
                            "name": "partiallyFillable",
                            "type": "bool"
                        },
                        {
                            "internalType": "bytes32",
                            "name": "sellTokenBalance",
                            "type": "bytes32"
                        },
                        {
                            "internalType": "bytes32",
                            "name": "buyTokenBalance",
                            "type": "bytes32"
                        }
                    ],
                    "internalType": "struct GPv2Order.Data",
                    "name": "order",
                    "type": "tuple"
                }
            ],
            "stateMutability": "view",
            "type": "function"
        },
        {
            "inputs": [
                {
                    "internalType": "bytes4",
                    "name": "interfaceId",
                    "type": "bytes4"
                }
            ],
            "name": "supportsInterface",
            "outputs": [
                {
                    "internalType": "bool",
                    "name": "",
                    "type": "bool"
                }
            ],
            "stateMutability": "view",
            "type": "function"
        },
        {
            "inputs": [
                {
                    "internalType": "address",
                    "name": "owner",
                    "type": "address"
                },
                {
                    "internalType": "address",
                    "name": "sender",
                    "type": "address"
                },
                {
                    "internalType": "bytes32",
                    "name": "_hash",
                    "type": "bytes32"
                },
                {
                    "internalType": "bytes32",
                    "name": "domainSeparator",
                    "type": "bytes32"
                },
                {
                    "internalType": "bytes32",
                    "name": "ctx",
                    "type": "bytes32"
                },
                {
                    "internalType": "bytes",
                    "name": "staticInput",
                    "type": "bytes"
                },
                {
                    "internalType": "bytes",
                    "name": "offchainInput",
                    "type": "bytes"
                },
                {
                    "components": [
                        {
                            "internalType": "contract IERC20",
                            "name": "sellToken",
                            "type": "address"
                        },
                        {
                            "internalType": "contract IERC20",
                            "name": "buyToken",
                            "type": "address"
                        },
                        {
                            "internalType": "address",
                            "name": "receiver",
                            "type": "address"
                        },
                        {
                            "internalType": "uint256",
                            "name": "sellAmount",
                            "type": "uint256"
                        },
                        {
                            "internalType": "uint256",
                            "name": "buyAmount",
                            "type": "uint256"
                        },
                        {
                            "internalType": "uint32",
                            "name": "validTo",
                            "type": "uint32"
                        },
                        {
                            "internalType": "bytes32",
                            "name": "appData",
                            "type": "bytes32"
                        },
                        {
                            "internalType": "uint256",
                            "name": "feeAmount",
                            "type": "uint256"
                        },
                        {
                            "internalType": "bytes32",
                            "name": "kind",
                            "type": "bytes32"
                        },
                        {
                            "internalType": "bool",
                            "name": "partiallyFillable",
                            "type": "bool"
                        },
                        {
                            "internalType": "bytes32",
                            "name": "sellTokenBalance",
                            "type": "bytes32"
                        },
                        {
                            "internalType": "bytes32",
                            "name": "buyTokenBalance",
                            "type": "bytes32"
                        }
                    ],
                    "internalType": "struct GPv2Order.Data",
                    "name": "",
                    "type": "tuple"
                }
            ],
            "name": "verify",
            "outputs": [],
            "stateMutability": "view",
            "type": "function"
        }
    ],
    "bytecode": "60808060405234601557610b64908161001a8239f35b5f80fdfe60806040526004361015610011575f80fd5b5f3560e01c806301ffc9a71461004457806314a2a7841461003f5763b8296fc41461003a575f80fd5b610177565b6100e7565b346100985760203660031901126100985760043563ffffffff60e01b811680910361009857632e0a5bf160e21b8114908115610087575b50151560805260206080f35b6301ffc9a760e01b1490508161007b565b5f80fd5b6001600160a01b0381160361009857565b35906100b88261009c565b565b9181601f84011215610098578235916001600160401b038311610098576020838186019501011161009857565b3461009857610260366003190112610098576004356101058161009c565b6024356101118161009c565b6044359060843560643560a4356001600160401b0381116100985761013a9036906004016100ba565b92909160c4356001600160401b0381116100985761015c9036906004016100ba565b9690956101803660e3190112610098576101759861036d565b005b346100985760a0366003190112610098576004356101948161009c565b61019f60243561009c565b6064356001600160401b038111610098576101be9036906004016100ba565b91608435926001600160401b038411610098576101e26101ea9436906004016100ba565b939092610785565b60405181516001600160a01b03168152908190610180820190610160906020818101516001600160a01b0316908501526040818101516001600160a01b031690850152606081015160608501526080810151608085015261025860a082015160a086019063ffffffff169052565b60c081015160c085015260e081015160e085015261010081015161010085015261028d61012082015161012086019015159052565b61014081015161014085015201516101608301520390f35b634e487b7160e01b5f52604160045260245ffd5b606081019081106001600160401b038211176102d457604052565b6102a5565b90601f801991011681019081106001600160401b038211176102d457604052565b604051906100b8610140836102d9565b604051906100b8610180836102d9565b6001600160401b0381116102d457601f01601f191660200190565b805180835260209291819084018484015e5f828201840152601f01601f1916010190565b90602061036a928181520190610335565b90565b946103859450604297929893969150601f1995610785565b0180517fd5a25ba2e97094ad7d83dc28a6572da797d6b3e7fc6663bd93efb789fc17e48982526101a0822091526040519161190160f01b83526002830152602282015220036103d057565b61041a6040516103e16040826102d9565b600c81526b0d2dcecc2d8d2c840d0c2e6d60a31b602082015260405191829163c8fc272560e01b83526020600484018181520190610335565b0390fd5b6040519061018082018281106001600160401b038211176102d4576040525f610160838281528260208201528260408201528260608201528260808201528260a08201528260c08201528260e08201528261010082015282610120820152826101408201520152565b3590811515820361009857565b81601f82011215610098578035906104ab8261031a565b926104b960405194856102d9565b8284526020838301011161009857815f926020809301838601378301015290565b602081830312610098578035906001600160401b038211610098570190610140828203126100985761050a6102fa565b91610514816100ad565b8352610522602082016100ad565b6020840152610533604082016100ad565b6040840152606081013560608401526080810135608084015260a081013560a084015260c081013560c084015261056c60e08201610487565b60e08401526101008101356001600160401b0381116100985761012092610594918301610494565b610100840152013561012082015290565b604051906105b46040836102d9565b6009825268746f6f206561726c7960b81b6020830152565b60409061036a939281528160208201520190610335565b90816020910312610098575190565b6040513d5f823e3d90fd5b6040519061060c6040836102d9565b601482527318985b185b98d9481a5b9cdd59999a58da595b9d60621b6020830152565b90816020910312610098573590565b602081830312610098578051906001600160401b0382116100985701906060828203126100985760405191610672836102b9565b805161067d8161009c565b835260208101516001600160401b0381116100985781019180601f840112156100985782516106ab8161031a565b916106b960405193846102d9565b81835260208286010111610098576020815f9282604097018386015e8301015260208401520151604082015290565b9081526001600160a01b0391821660208201529116604082015260806060820181905261036a92910190610335565b634e487b7160e01b5f52601160045260245ffd5b6127100390612710821161073b57565b610717565b8181029291811591840414171561073b57565b604051906107626040836102d9565b60148252731c1c9a58d94818da1958dad95c8819985a5b195960621b6020830152565b9392919061079e9161079561041e565b508101906104da565b9260a08401516107af814210151590565b610ade57508351610804916020916107d7906001600160a01b03165b6001600160a01b031690565b6040516370a0823160e01b81526001600160a01b0390921660048301529092839190829081906024820190565b03915afa8015610a9657610823915f91610abf575b5060808501511190565b610a9b576108339181019061062f565b610100820151805180610985575b5050815161093491906001600160a01b031660208401519093906108f8906001600160a01b031660408301519093906001600160a01b03169060608401516108e161088f60c0870151610b03565b936108d16108a660e06101208a0151990151151590565b986108c16108b261030a565b6001600160a01b03909d168d52565b6001600160a01b031660208c0152565b6001600160a01b031660408a0152565b6060880152608087015263ffffffff1660a0860152565b60c08401525f60e08401527ff3b277728b3fee749481eb3e0b3b48980dbbab78658fc419025cb16eee3467756101008401521515610120830152565b7f5a28e9363bb942b639270062aa6bb295f434bcdfc42c97267bf003f272060dc96101408201527f5a28e9363bb942b639270062aa6bb295f434bcdfc42c97267bf003f272060dc961016082015290565b9060208061099793830101910161063e565b80516109ab906001600160a01b03166107cb565b606084015184516020808701518186015160405163068801f760e11b8152969592948794859384936109f09390926001600160a01b03928316921690600486016106e8565b03915afa918215610a9657610a2f92610a2a92610a22925f92610a5e575b506040610a1c91015161072b565b90610740565b612710900490565b821090565b610a3a575f80610841565b61041a610a45610753565b60405163d05f306560e01b815291829160048301610359565b610a1c919250610a8760409160203d602011610a8f575b610a7f81836102d9565b8101906105e3565b929150610a0e565b503d610a75565b6105f2565b61041a610aa66105fd565b60405163c8fc272560e01b815291829160048301610359565b610ad8915060203d602011610a8f57610a7f81836102d9565b5f610819565b610ae66105a5565b604051637e33463760e01b815291829161041a91600484016105cc565b63ffffffff8111610b175763ffffffff1690565b6306dfcc6560e41b5f52602060045260245260445ffdfea2646970667358221220f453114ee5ba801f9a64cce16b299a3afa3f9f87b76ac7261d46d549de65e8c664736f6c634300081c0033",
    "sourcePath": "/home/jimjim/Desktop/sloppy-top-uppy/src/SloppyTopUppy.sol",
    "compiler": {
        "name": "solc",
        "version": "0.8.28+commit.7893614a"
    },
    "functionHashes": {
        "getTradeableOrder(address,address,bytes32,bytes,bytes)": "b8296fc4",
        "supportsInterface(bytes4)": "01ffc9a7",
        "verify(address,address,bytes32,bytes32,bytes32,bytes,bytes,(address,address,address,uint256,uint256,uint32,bytes32,uint256,bytes32,bool,bytes32,bytes32))": "14a2a784"
    },
    "gasEstimates": {
        "creation": {
            "codeDepositCost": "583200",
            "executionCost": "627",
            "totalCost": "583827"
        },
        "external": {
            "getTradeableOrder(address,address,bytes32,bytes,bytes)": "infinite",
            "supportsInterface(bytes4)": "261",
            "verify(address,address,bytes32,bytes32,bytes32,bytes,bytes,(address,address,address,uint256,uint256,uint32,bytes32,uint256,bytes32,bool,bytes32,bytes32))": "infinite"
        }
    }
}